{
  "contractName": "Test",
  "abi": [
    {
      "constant": false,
      "inputs": [],
      "name": "renounceOwnership",
      "outputs": [],
      "payable": false,
      "stateMutability": "nonpayable",
      "type": "function",
      "signature": "0x715018a6"
    },
    {
      "constant": true,
      "inputs": [],
      "name": "owner",
      "outputs": [
        {
          "name": "",
          "type": "address"
        }
      ],
      "payable": false,
      "stateMutability": "view",
      "type": "function",
      "signature": "0x8da5cb5b"
    },
    {
      "constant": true,
      "inputs": [],
      "name": "isOwner",
      "outputs": [
        {
          "name": "",
          "type": "bool"
        }
      ],
      "payable": false,
      "stateMutability": "view",
      "type": "function",
      "signature": "0x8f32d59b"
    },
    {
      "constant": false,
      "inputs": [
        {
          "name": "newOwner",
          "type": "address"
        }
      ],
      "name": "transferOwnership",
      "outputs": [],
      "payable": false,
      "stateMutability": "nonpayable",
      "type": "function",
      "signature": "0xf2fde38b"
    },
    {
      "anonymous": false,
      "inputs": [
        {
          "indexed": false,
          "name": "sender",
          "type": "address"
        },
        {
          "indexed": false,
          "name": "userSolutionAddress",
          "type": "address"
        },
        {
          "indexed": false,
          "name": "reward",
          "type": "uint256"
        }
      ],
      "name": "JobPayment",
      "type": "event",
      "signature": "0x36515fb72e9315f8cd38d14a295587e8231ff91f756ae425b7da3618a5404f17"
    },
    {
      "anonymous": false,
      "inputs": [
        {
          "indexed": false,
          "name": "sender",
          "type": "address"
        },
        {
          "indexed": false,
          "name": "value",
          "type": "uint256"
        }
      ],
      "name": "NewUser",
      "type": "event",
      "signature": "0xd75b88a9203b17f9356ca063241beac16a25d5a46f485b378c2c229e864bdd4d"
    },
    {
      "anonymous": false,
      "inputs": [
        {
          "indexed": true,
          "name": "previousOwner",
          "type": "address"
        },
        {
          "indexed": true,
          "name": "newOwner",
          "type": "address"
        }
      ],
      "name": "OwnershipTransferred",
      "type": "event",
      "signature": "0x8be0079c531659141344cd1fd0a4f28419497f9722a3daafe3b4186f6b6457e0"
    },
    {
      "constant": false,
      "inputs": [
        {
          "name": "jobsHash",
          "type": "string"
        }
      ],
      "name": "updateJobsHash",
      "outputs": [],
      "payable": false,
      "stateMutability": "nonpayable",
      "type": "function",
      "signature": "0x608338ef"
    },
    {
      "constant": false,
      "inputs": [
        {
          "name": "mode",
          "type": "uint8"
        },
        {
          "name": "userHash",
          "type": "string"
        },
        {
          "name": "jobsHash",
          "type": "string"
        }
      ],
      "name": "userAndJobsHashes",
      "outputs": [],
      "payable": true,
      "stateMutability": "payable",
      "type": "function",
      "signature": "0x7139156b"
    },
    {
      "constant": false,
      "inputs": [
        {
          "name": "userHash",
          "type": "string"
        },
        {
          "name": "jobsHash",
          "type": "string"
        },
        {
          "name": "userJobAddress",
          "type": "address"
        }
      ],
      "name": "updateForSolutions",
      "outputs": [],
      "payable": false,
      "stateMutability": "nonpayable",
      "type": "function",
      "signature": "0x6b6f95e4"
    },
    {
      "constant": false,
      "inputs": [
        {
          "name": "userHash",
          "type": "string"
        },
        {
          "name": "jobsHash",
          "type": "string"
        },
        {
          "name": "userSolutionAddress",
          "type": "address"
        },
        {
          "name": "reward",
          "type": "uint256"
        }
      ],
      "name": "updateHasheshAndPaySolution",
      "outputs": [],
      "payable": false,
      "stateMutability": "nonpayable",
      "type": "function",
      "signature": "0x922fa32b"
    },
    {
      "constant": true,
      "inputs": [],
      "name": "getJobsHash",
      "outputs": [
        {
          "name": "",
          "type": "string"
        }
      ],
      "payable": false,
      "stateMutability": "view",
      "type": "function",
      "signature": "0xe9e02297"
    },
    {
      "constant": true,
      "inputs": [
        {
          "name": "user",
          "type": "address"
        }
      ],
      "name": "getUser",
      "outputs": [
        {
          "name": "funds",
          "type": "uint256"
        },
        {
          "name": "userHash",
          "type": "string"
        }
      ],
      "payable": false,
      "stateMutability": "view",
      "type": "function",
      "signature": "0x6f77926b"
    },
    {
      "constant": true,
      "inputs": [],
      "name": "getContractValue",
      "outputs": [
        {
          "name": "",
          "type": "uint256"
        }
      ],
      "payable": false,
      "stateMutability": "view",
      "type": "function",
      "signature": "0xdc82697c"
    },
    {
      "constant": true,
      "inputs": [
        {
          "name": "user",
          "type": "address"
        }
      ],
      "name": "isUser",
      "outputs": [
        {
          "name": "",
          "type": "bool"
        }
      ],
      "payable": false,
      "stateMutability": "view",
      "type": "function",
      "signature": "0x4209fff1"
    }
  ],
  "bytecode": "0x6080604052336000806101000a81548173ffffffffffffffffffffffffffffffffffffffff021916908373ffffffffffffffffffffffffffffffffffffffff1602179055506000809054906101000a900473ffffffffffffffffffffffffffffffffffffffff1673ffffffffffffffffffffffffffffffffffffffff16600073ffffffffffffffffffffffffffffffffffffffff167f8be0079c531659141344cd1fd0a4f28419497f9722a3daafe3b4186f6b6457e060405160405180910390a361172c806100cf6000396000f3fe6080604052600436106100ba576000357c0100000000000000000000000000000000000000000000000000000000900463ffffffff1680634209fff1146100bf578063608338ef146101285780636b6f95e4146101f05780636f77926b1461036f5780637139156b14610440578063715018a61461059f5780638da5cb5b146105b65780638f32d59b1461060d578063922fa32b1461063c578063dc82697c146107c5578063e9e02297146107f0578063f2fde38b14610880575b600080fd5b3480156100cb57600080fd5b5061010e600480360360208110156100e257600080fd5b81019080803573ffffffffffffffffffffffffffffffffffffffff1690602001909291905050506108d1565b604051808215151515815260200191505060405180910390f35b34801561013457600080fd5b506101ee6004803603602081101561014b57600080fd5b810190808035906020019064010000000081111561016857600080fd5b82018360208201111561017a57600080fd5b8035906020019184600183028401116401000000008311171561019c57600080fd5b91908080601f016020809104026020016040519081016040528093929190818152602001838380828437600081840152601f19601f820116905080830192505050505050509192919290505050610927565b005b3480156101fc57600080fd5b5061036d6004803603606081101561021357600080fd5b810190808035906020019064010000000081111561023057600080fd5b82018360208201111561024257600080fd5b8035906020019184600183028401116401000000008311171561026457600080fd5b91908080601f016020809104026020016040519081016040528093929190818152602001838380828437600081840152601f19601f820116905080830192505050505050509192919290803590602001906401000000008111156102c757600080fd5b8201836020820111156102d957600080fd5b803590602001918460018302840111640100000000831117156102fb57600080fd5b91908080601f016020809104026020016040519081016040528093929190818152602001838380828437600081840152601f19601f820116905080830192505050505050509192919290803573ffffffffffffffffffffffffffffffffffffffff169060200190929190505050610941565b005b34801561037b57600080fd5b506103be6004803603602081101561039257600080fd5b81019080803573ffffffffffffffffffffffffffffffffffffffff169060200190929190505050610959565b6040518083815260200180602001828103825283818151815260200191508051906020019080838360005b838110156104045780820151818401526020810190506103e9565b50505050905090810190601f1680156104315780820380516001836020036101000a031916815260200191505b50935050505060405180910390f35b61059d6004803603606081101561045657600080fd5b81019080803560ff1690602001909291908035906020019064010000000081111561048057600080fd5b82018360208201111561049257600080fd5b803590602001918460018302840111640100000000831117156104b457600080fd5b91908080601f016020809104026020016040519081016040528093929190818152602001838380828437600081840152601f19601f8201169050808301925050505050505091929192908035906020019064010000000081111561051757600080fd5b82018360208201111561052957600080fd5b8035906020019184600183028401116401000000008311171561054b57600080fd5b91908080601f016020809104026020016040519081016040528093929190818152602001838380828437600081840152601f19601f820116905080830192505050505050509192919290505050610a87565b005b3480156105ab57600080fd5b506105b4610d09565b005b3480156105c257600080fd5b506105cb610ddb565b604051808273ffffffffffffffffffffffffffffffffffffffff1673ffffffffffffffffffffffffffffffffffffffff16815260200191505060405180910390f35b34801561061957600080fd5b50610622610e04565b604051808215151515815260200191505060405180910390f35b34801561064857600080fd5b506107c36004803603608081101561065f57600080fd5b810190808035906020019064010000000081111561067c57600080fd5b82018360208201111561068e57600080fd5b803590602001918460018302840111640100000000831117156106b057600080fd5b91908080601f016020809104026020016040519081016040528093929190818152602001838380828437600081840152601f19601f8201169050808301925050505050505091929192908035906020019064010000000081111561071357600080fd5b82018360208201111561072557600080fd5b8035906020019184600183028401116401000000008311171561074757600080fd5b91908080601f016020809104026020016040519081016040528093929190818152602001838380828437600081840152601f19601f820116905080830192505050505050509192919290803573ffffffffffffffffffffffffffffffffffffffff16906020019092919080359060200190929190505050610e5b565b005b3480156107d157600080fd5b506107da611154565b6040518082815260200191505060405180910390f35b3480156107fc57600080fd5b50610805611173565b6040518080602001828103825283818151815260200191508051906020019080838360005b8381101561084557808201518184015260208101905061082a565b50505050905090810190601f1680156108725780820380516001836020036101000a031916815260200191505b509250505060405180910390f35b34801561088c57600080fd5b506108cf600480360360208110156108a357600080fd5b81019080803573ffffffffffffffffffffffffffffffffffffffff169060200190929190505050611215565b005b6000600260008373ffffffffffffffffffffffffffffffffffffffff1673ffffffffffffffffffffffffffffffffffffffff16815260200190815260200160002060009054906101000a900460ff169050919050565b806003908051906020019061093d9291906115c1565b5050565b61094b8382611234565b61095482610927565b505050565b60006060600160008473ffffffffffffffffffffffffffffffffffffffff1673ffffffffffffffffffffffffffffffffffffffff16815260200190815260200160002060000154600160008573ffffffffffffffffffffffffffffffffffffffff1673ffffffffffffffffffffffffffffffffffffffff168152602001908152602001600020600101808054600181600116156101000203166002900480601f016020809104026020016040519081016040528092919081815260200182805460018160011615610100020316600290048015610a775780601f10610a4c57610100808354040283529160200191610a77565b820191906000526020600020905b815481529060010190602001808311610a5a57829003601f168201915b5050505050905091509150915091565b34600081111515610b26576040517f08c379a00000000000000000000000000000000000000000000000000000000081526004018080602001828103825260218152602001807f4d757374206265206d6f7265206265206120706f736974697665206e756d626581526020017f720000000000000000000000000000000000000000000000000000000000000081525060400191505060405180910390fd5b600033905060006001811115610b3857fe5b856001811115610b4457fe5b1415610c2457600260008273ffffffffffffffffffffffffffffffffffffffff1673ffffffffffffffffffffffffffffffffffffffff16815260200190815260200160002060009054906101000a900460ff16151515610c0c576040517f08c379a000000000000000000000000000000000000000000000000000000000815260040180806020018281038252600f8152602001807f416c72656164792061207573657221000000000000000000000000000000000081525060200191505060405180910390fd5b610c158461128f565b610c1f60006113eb565b610cf9565b600260008273ffffffffffffffffffffffffffffffffffffffff1673ffffffffffffffffffffffffffffffffffffffff16815260200190815260200160002060009054906101000a900460ff161515610ce5576040517f08c379a00000000000000000000000000000000000000000000000000000000081526004018080602001828103825260138152602001807f4e6f74206120757365722061646472657373210000000000000000000000000081525060200191505060405180910390fd5b610cee8461146d565b610cf860016113eb565b5b610d0283610927565b5050505050565b610d11610e04565b1515610d1c57600080fd5b600073ffffffffffffffffffffffffffffffffffffffff166000809054906101000a900473ffffffffffffffffffffffffffffffffffffffff1673ffffffffffffffffffffffffffffffffffffffff167f8be0079c531659141344cd1fd0a4f28419497f9722a3daafe3b4186f6b6457e060405160405180910390a360008060006101000a81548173ffffffffffffffffffffffffffffffffffffffff021916908373ffffffffffffffffffffffffffffffffffffffff160217905550565b60008060009054906101000a900473ffffffffffffffffffffffffffffffffffffffff16905090565b60008060009054906101000a900473ffffffffffffffffffffffffffffffffffffffff1673ffffffffffffffffffffffffffffffffffffffff163373ffffffffffffffffffffffffffffffffffffffff1614905090565b3381600260008373ffffffffffffffffffffffffffffffffffffffff1673ffffffffffffffffffffffffffffffffffffffff16815260200190815260200160002060009054906101000a900460ff161515610f1e576040517f08c379a000000000000000000000000000000000000000000000000000000000815260040180806020018281038252601b8152602001807f546869732061646472657373206973206e6f742061207573657221000000000081525060200191505060405180910390fd5b80600160008473ffffffffffffffffffffffffffffffffffffffff1673ffffffffffffffffffffffffffffffffffffffff1681526020019081526020016000206000015410151515610ffe576040517f08c379a00000000000000000000000000000000000000000000000000000000081526004018080602001828103825260258152602001807f5468697320616464726573732068617320696e7375666669656369656e74206681526020017f756e64732100000000000000000000000000000000000000000000000000000081525060400191505060405180910390fd5b600033905061100c8761146d565b61101586610927565b83600160008373ffffffffffffffffffffffffffffffffffffffff1673ffffffffffffffffffffffffffffffffffffffff168152602001908152602001600020600001600082825403925050819055508473ffffffffffffffffffffffffffffffffffffffff166108fc859081150290604051600060405180830381858888f193505050501580156110ab573d6000803e3d6000fd5b507f36515fb72e9315f8cd38d14a295587e8231ff91f756ae425b7da3618a5404f17818686604051808473ffffffffffffffffffffffffffffffffffffffff1673ffffffffffffffffffffffffffffffffffffffff1681526020018373ffffffffffffffffffffffffffffffffffffffff1673ffffffffffffffffffffffffffffffffffffffff168152602001828152602001935050505060405180910390a150505050505050565b60003073ffffffffffffffffffffffffffffffffffffffff1631905090565b606060038054600181600116156101000203166002900480601f01602080910402602001604051908101604052809291908181526020018280546001816001161561010002031660029004801561120b5780601f106111e05761010080835404028352916020019161120b565b820191906000526020600020905b8154815290600101906020018083116111ee57829003601f168201915b5050505050905090565b61121d610e04565b151561122857600080fd5b611231816114c7565b50565b81600160008373ffffffffffffffffffffffffffffffffffffffff1673ffffffffffffffffffffffffffffffffffffffff168152602001908152602001600020600101908051906020019061128a9291906115c1565b505050565b600033905060003490506112a1611641565b60408051908101604052808381526020018581525090506001600260008573ffffffffffffffffffffffffffffffffffffffff1673ffffffffffffffffffffffffffffffffffffffff16815260200190815260200160002060006101000a81548160ff02191690831515021790555080600160008573ffffffffffffffffffffffffffffffffffffffff1673ffffffffffffffffffffffffffffffffffffffff16815260200190815260200160002060008201518160000155602082015181600101908051906020019061137692919061165b565b509050507fd75b88a9203b17f9356ca063241beac16a25d5a46f485b378c2c229e864bdd4d8383604051808373ffffffffffffffffffffffffffffffffffffffff1673ffffffffffffffffffffffffffffffffffffffff1681526020018281526020019250505060405180910390a150505050565b6001808111156113f757fe5b81600181111561140357fe5b141561145a5734600160003373ffffffffffffffffffffffffffffffffffffffff1673ffffffffffffffffffffffffffffffffffffffff168152602001908152602001600020600001600082825401925050819055505b3460046000828254019250508190555050565b80600160003373ffffffffffffffffffffffffffffffffffffffff1673ffffffffffffffffffffffffffffffffffffffff16815260200190815260200160002060010190805190602001906114c39291906115c1565b5050565b600073ffffffffffffffffffffffffffffffffffffffff168173ffffffffffffffffffffffffffffffffffffffff161415151561150357600080fd5b8073ffffffffffffffffffffffffffffffffffffffff166000809054906101000a900473ffffffffffffffffffffffffffffffffffffffff1673ffffffffffffffffffffffffffffffffffffffff167f8be0079c531659141344cd1fd0a4f28419497f9722a3daafe3b4186f6b6457e060405160405180910390a3806000806101000a81548173ffffffffffffffffffffffffffffffffffffffff021916908373ffffffffffffffffffffffffffffffffffffffff16021790555050565b828054600181600116156101000203166002900490600052602060002090601f016020900481019282601f1061160257805160ff1916838001178555611630565b82800160010185558215611630579182015b8281111561162f578251825591602001919060010190611614565b5b50905061163d91906116db565b5090565b604080519081016040528060008152602001606081525090565b828054600181600116156101000203166002900490600052602060002090601f016020900481019282601f1061169c57805160ff19168380011785556116ca565b828001600101855582156116ca579182015b828111156116c95782518255916020019190600101906116ae565b5b5090506116d791906116db565b5090565b6116fd91905b808211156116f95760008160009055506001016116e1565b5090565b9056fea165627a7a72305820fb606eb33f42fb5b37b879089a51023d4c9faacea9ba1b822f2ee66dabbf2daf0029",
  "source": "pragma solidity >=0.4.21 <0.6.0;\r\n// pragma experimental ABIEncoderV2;\r\n\r\nimport \"./Ownable.sol\";\r\n\r\ncontract Test is Ownable {\r\n    enum UserMode { Add, Update }\r\n\r\n    mapping(address => User) users;\r\n    mapping(address => bool) userIn;\r\n    string allJobs;\r\n    uint contractValue;\r\n\r\n    struct User {\r\n        uint funds;\r\n        string userHash;\r\n    }\r\n\r\n    event JobPayment(address sender, address userSolutionAddress, uint reward);\r\n    event NewUser(address sender, uint value);\r\n\r\n    modifier fundsCheck(uint value) {\r\n        require(value > 0, 'Must be more be a positive number');\r\n        _;\r\n    }\r\n\r\n    modifier paymentValidation(address sender, uint reward) {\r\n        require(userIn[sender], 'This address is not a user!');\r\n        require(users[sender].funds >= reward, 'This address has insuffiecient funds!');\r\n        _;\r\n    }\r\n\r\n    function updateJobsHash(string memory jobsHash) public  \r\n    {\r\n        allJobs = jobsHash;\r\n    }\r\n\r\n    function userAndJobsHashes(UserMode mode, string memory userHash, string memory jobsHash)\r\n        public\r\n        payable \r\n        fundsCheck(msg.value)\r\n    {\r\n        address sender = msg.sender;\r\n        if (mode == UserMode.Add) { \r\n            require(!userIn[sender], 'Already a user!');\r\n            _addUser(userHash);\r\n            addReward(UserMode.Add);\r\n        } else {\r\n            require(userIn[sender], 'Not a user address!');\r\n            _updateUserHash(userHash);\r\n            addReward(UserMode.Update);\r\n        }\r\n        updateJobsHash(jobsHash);\r\n        \r\n    }\r\n\r\n    function updateForSolutions(string memory userHash, string memory jobsHash, address userJobAddress) \r\n        public\r\n    {\r\n        _updateUserHashForSolutions(userHash, userJobAddress);\r\n        updateJobsHash(jobsHash);\r\n    }\r\n\r\n    function updateHasheshAndPaySolution(string memory userHash, string memory jobsHash, address payable userSolutionAddress, uint reward) \r\n        public\r\n        paymentValidation(msg.sender, reward) \r\n    {\r\n        address sender = msg.sender;   \r\n        _updateUserHash(userHash);\r\n        updateJobsHash(jobsHash);\r\n        users[sender].funds -= reward;\r\n        userSolutionAddress.transfer(reward);\r\n        emit JobPayment(sender, userSolutionAddress, reward);\r\n    }\r\n\r\n    function _addUser(string memory userHash) private {\r\n        address sender = msg.sender;\r\n        uint value = msg.value;\r\n        User memory user = User(value, userHash);\r\n        userIn[sender] = true;\r\n        users[sender] = user;\r\n        emit NewUser(sender, value);\r\n    }\r\n\r\n    function _updateUserHash(string memory hashIpfs) private {\r\n        users[msg.sender].userHash = hashIpfs;\r\n    }\r\n\r\n    function _updateUserHashForSolutions(string memory hashIpfs, address userJobAddress) \r\n        private\r\n    {\r\n        users[userJobAddress].userHash = hashIpfs;\r\n    }\r\n\r\n    function addReward(UserMode mode) private {\r\n        if (mode == UserMode.Update) {\r\n            users[msg.sender].funds += msg.value;\r\n        }\r\n        contractValue += msg.value;       \r\n    }\r\n\r\n    function getJobsHash() public view returns(string memory){\r\n        return allJobs;\r\n    }\r\n\r\n    function getUser(address user) public view returns(uint funds, string memory userHash) {\r\n        return (users[user].funds, users[user].userHash);\r\n    }\r\n\r\n    function getContractValue() public view returns(uint) {\r\n        return address(this).balance;\r\n    }\r\n    \r\n    function isUser(address user) public view returns(bool) {\r\n        return userIn[user];\r\n    }\r\n\r\n}",
  "sourcePath": "E:/Solidity_Softuni/final/contracts/Test.sol",
  "compiler": {
    "name": "solc",
    "version": "0.5.0+commit.1d4f565a.Emscripten.clang"
  },
  "schemaVersion": "3.0.5",
  "updatedAt": "2019-04-14T16:34:02.229Z",
  "devdoc": {
    "methods": {
      "isOwner()": {
        "return": "true if `msg.sender` is the owner of the contract.\r"
      },
      "owner()": {
        "return": "the address of the owner.\r"
      },
      "renounceOwnership()": {
        "details": "Allows the current owner to relinquish control of the contract.\r It will not be possible to call the functions with the `onlyOwner`\r modifier anymore.\r"
      },
      "transferOwnership(address)": {
        "details": "Allows the current owner to transfer control of the contract to a newOwner.\r",
        "params": {
          "newOwner": "The address to transfer ownership to.\r"
        }
      }
    }
  },
  "userdoc": {
    "methods": {
      "renounceOwnership()": {
        "notice": "Renouncing ownership will leave the contract without an owner,\r thereby removing any functionality that is only available to the owner.\r"
      }
    }
  }
}