{
  "contractName": "Test",
  "abi": [
    {
      "constant": false,
      "inputs": [],
      "name": "renounceOwnership",
      "outputs": [],
      "payable": false,
      "stateMutability": "nonpayable",
      "type": "function",
      "signature": "0x715018a6"
    },
    {
      "constant": true,
      "inputs": [],
      "name": "owner",
      "outputs": [
        {
          "name": "",
          "type": "address"
        }
      ],
      "payable": false,
      "stateMutability": "view",
      "type": "function",
      "signature": "0x8da5cb5b"
    },
    {
      "constant": true,
      "inputs": [],
      "name": "isOwner",
      "outputs": [
        {
          "name": "",
          "type": "bool"
        }
      ],
      "payable": false,
      "stateMutability": "view",
      "type": "function",
      "signature": "0x8f32d59b"
    },
    {
      "constant": false,
      "inputs": [
        {
          "name": "newOwner",
          "type": "address"
        }
      ],
      "name": "transferOwnership",
      "outputs": [],
      "payable": false,
      "stateMutability": "nonpayable",
      "type": "function",
      "signature": "0xf2fde38b"
    },
    {
      "anonymous": false,
      "inputs": [
        {
          "indexed": true,
          "name": "previousOwner",
          "type": "address"
        },
        {
          "indexed": true,
          "name": "newOwner",
          "type": "address"
        }
      ],
      "name": "OwnershipTransferred",
      "type": "event",
      "signature": "0x8be0079c531659141344cd1fd0a4f28419497f9722a3daafe3b4186f6b6457e0"
    },
    {
      "constant": false,
      "inputs": [
        {
          "name": "jobsHash",
          "type": "string"
        }
      ],
      "name": "updateJobsHash",
      "outputs": [],
      "payable": false,
      "stateMutability": "nonpayable",
      "type": "function",
      "signature": "0x608338ef"
    },
    {
      "constant": false,
      "inputs": [
        {
          "name": "mode",
          "type": "uint8"
        },
        {
          "name": "userHash",
          "type": "string"
        },
        {
          "name": "jobsHash",
          "type": "string"
        }
      ],
      "name": "userAndJobsHashes",
      "outputs": [],
      "payable": true,
      "stateMutability": "payable",
      "type": "function",
      "signature": "0x7139156b"
    },
    {
      "constant": false,
      "inputs": [
        {
          "name": "userHash",
          "type": "string"
        },
        {
          "name": "jobsHash",
          "type": "string"
        },
        {
          "name": "userJobAddress",
          "type": "address"
        }
      ],
      "name": "updateForSolutions",
      "outputs": [],
      "payable": false,
      "stateMutability": "nonpayable",
      "type": "function",
      "signature": "0x6b6f95e4"
    },
    {
      "constant": false,
      "inputs": [
        {
          "name": "userHash",
          "type": "string"
        },
        {
          "name": "jobsHash",
          "type": "string"
        },
        {
          "name": "userSolution",
          "type": "address"
        },
        {
          "name": "reward",
          "type": "uint256"
        }
      ],
      "name": "updateHasheshAndPaySolution",
      "outputs": [],
      "payable": true,
      "stateMutability": "payable",
      "type": "function",
      "signature": "0x922fa32b"
    },
    {
      "constant": false,
      "inputs": [
        {
          "name": "addressUser",
          "type": "address"
        },
        {
          "name": "reward",
          "type": "uint256"
        }
      ],
      "name": "doPay",
      "outputs": [],
      "payable": false,
      "stateMutability": "nonpayable",
      "type": "function",
      "signature": "0x0bfd588a"
    },
    {
      "constant": true,
      "inputs": [],
      "name": "getJobsHash",
      "outputs": [
        {
          "name": "",
          "type": "string"
        }
      ],
      "payable": false,
      "stateMutability": "view",
      "type": "function",
      "signature": "0xe9e02297"
    },
    {
      "constant": false,
      "inputs": [
        {
          "name": "hashIpfs",
          "type": "string"
        }
      ],
      "name": "updateUserHash",
      "outputs": [],
      "payable": false,
      "stateMutability": "nonpayable",
      "type": "function",
      "signature": "0x79a609e5"
    },
    {
      "constant": true,
      "inputs": [
        {
          "name": "user",
          "type": "address"
        }
      ],
      "name": "getUser",
      "outputs": [
        {
          "name": "funds",
          "type": "uint256"
        },
        {
          "name": "userHash",
          "type": "string"
        }
      ],
      "payable": false,
      "stateMutability": "view",
      "type": "function",
      "signature": "0x6f77926b"
    },
    {
      "constant": true,
      "inputs": [],
      "name": "getContractValue",
      "outputs": [
        {
          "name": "",
          "type": "uint256"
        }
      ],
      "payable": false,
      "stateMutability": "view",
      "type": "function",
      "signature": "0xdc82697c"
    },
    {
      "constant": true,
      "inputs": [
        {
          "name": "user",
          "type": "address"
        }
      ],
      "name": "isUser",
      "outputs": [
        {
          "name": "",
          "type": "bool"
        }
      ],
      "payable": false,
      "stateMutability": "view",
      "type": "function",
      "signature": "0x4209fff1"
    }
  ],
  "bytecode": "0x6080604052336000806101000a81548173ffffffffffffffffffffffffffffffffffffffff021916908373ffffffffffffffffffffffffffffffffffffffff1602179055506000809054906101000a900473ffffffffffffffffffffffffffffffffffffffff1673ffffffffffffffffffffffffffffffffffffffff16600073ffffffffffffffffffffffffffffffffffffffff167f8be0079c531659141344cd1fd0a4f28419497f9722a3daafe3b4186f6b6457e060405160405180910390a361142a806100cf6000396000f3fe6080604052600436106100d0576000357c0100000000000000000000000000000000000000000000000000000000900463ffffffff1680630bfd588a146100d55780634209fff1146100fe578063608338ef1461013b5780636b6f95e4146101645780636f77926b1461018d5780637139156b146101cb578063715018a6146101e757806379a609e5146101fe5780638da5cb5b146102275780638f32d59b14610252578063922fa32b1461027d578063dc82697c14610299578063e9e02297146102c4578063f2fde38b146102ef575b600080fd5b3480156100e157600080fd5b506100fc60048036036100f79190810190610e6b565b610318565b005b34801561010a57600080fd5b5061012560048036036101209190810190610e42565b610363565b60405161013291906111c2565b60405180910390f35b34801561014757600080fd5b50610162600480360361015d9190810190610f26565b6103b9565b005b34801561017057600080fd5b5061018b60048036036101869190810190610f67565b6103d3565b005b34801561019957600080fd5b506101b460048036036101af9190810190610e42565b6103eb565b6040516101c292919061127a565b60405180910390f35b6101e560048036036101e09190810190610ea7565b610519565b005b3480156101f357600080fd5b506101fc6106d0565b005b34801561020a57600080fd5b5061022560048036036102209190810190610f26565b6107a2565b005b34801561023357600080fd5b5061023c6107fc565b60405161024991906111a7565b60405180910390f35b34801561025e57600080fd5b50610267610825565b60405161027491906111c2565b60405180910390f35b61029760048036036102929190810190610fe6565b61087c565b005b3480156102a557600080fd5b506102ae6108db565b6040516102bb919061125f565b60405180910390f35b3480156102d057600080fd5b506102d96108fa565b6040516102e691906111dd565b60405180910390f35b3480156102fb57600080fd5b5061031660048036036103119190810190610e42565b61099c565b005b3373ffffffffffffffffffffffffffffffffffffffff166108fc829081150290604051600060405180830381858888f1935050505015801561035e573d6000803e3d6000fd5b505050565b6000600260008373ffffffffffffffffffffffffffffffffffffffff1673ffffffffffffffffffffffffffffffffffffffff16815260200190815260200160002060009054906101000a900460ff169050919050565b80600390805190602001906103cf929190610c5d565b5050565b6103dd83826109bb565b6103e6826103b9565b505050565b60006060600160008473ffffffffffffffffffffffffffffffffffffffff1673ffffffffffffffffffffffffffffffffffffffff16815260200190815260200160002060000154600160008573ffffffffffffffffffffffffffffffffffffffff1673ffffffffffffffffffffffffffffffffffffffff168152602001908152602001600020600101808054600181600116156101000203166002900480601f0160208091040260200160405190810160405280929190818152602001828054600181600116156101000203166002900480156105095780601f106104de57610100808354040283529160200191610509565b820191906000526020600020905b8154815290600101906020018083116104ec57829003601f168201915b5050505050905091509150915091565b3460008111151561055f576040517f08c379a00000000000000000000000000000000000000000000000000000000081526004016105569061121f565b60405180910390fd5b60003390506000600181111561057157fe5b85600181111561057d57fe5b141561062057600260008273ffffffffffffffffffffffffffffffffffffffff1673ffffffffffffffffffffffffffffffffffffffff16815260200190815260200160002060009054906101000a900460ff16151515610612576040517f08c379a0000000000000000000000000000000000000000000000000000000008152600401610609906111ff565b60405180910390fd5b61061b84610a16565b6106b8565b600260008273ffffffffffffffffffffffffffffffffffffffff1673ffffffffffffffffffffffffffffffffffffffff16815260200190815260200160002060009054906101000a900460ff1615156106ae576040517f08c379a00000000000000000000000000000000000000000000000000000000081526004016106a59061123f565b60405180910390fd5b6106b7846107a2565b5b6106c1836103b9565b6106c9610b01565b5050505050565b6106d8610825565b15156106e357600080fd5b600073ffffffffffffffffffffffffffffffffffffffff166000809054906101000a900473ffffffffffffffffffffffffffffffffffffffff1673ffffffffffffffffffffffffffffffffffffffff167f8be0079c531659141344cd1fd0a4f28419497f9722a3daafe3b4186f6b6457e060405160405180910390a360008060006101000a81548173ffffffffffffffffffffffffffffffffffffffff021916908373ffffffffffffffffffffffffffffffffffffffff160217905550565b80600160003373ffffffffffffffffffffffffffffffffffffffff1673ffffffffffffffffffffffffffffffffffffffff16815260200190815260200160002060010190805190602001906107f8929190610c5d565b5050565b60008060009054906101000a900473ffffffffffffffffffffffffffffffffffffffff16905090565b60008060009054906101000a900473ffffffffffffffffffffffffffffffffffffffff1673ffffffffffffffffffffffffffffffffffffffff163373ffffffffffffffffffffffffffffffffffffffff1614905090565b610885846107a2565b61088e836103b9565b8173ffffffffffffffffffffffffffffffffffffffff166108fc349081150290604051600060405180830381858888f193505050501580156108d4573d6000803e3d6000fd5b5050505050565b60003073ffffffffffffffffffffffffffffffffffffffff1631905090565b606060038054600181600116156101000203166002900480601f0160208091040260200160405190810160405280929190818152602001828054600181600116156101000203166002900480156109925780601f1061096757610100808354040283529160200191610992565b820191906000526020600020905b81548152906001019060200180831161097557829003601f168201915b5050505050905090565b6109a4610825565b15156109af57600080fd5b6109b881610b63565b50565b81600160008373ffffffffffffffffffffffffffffffffffffffff1673ffffffffffffffffffffffffffffffffffffffff1681526020019081526020016000206001019080519060200190610a11929190610c5d565b505050565b6000339050610a23610cdd565b60408051908101604052803481526020018481525090506001600260008473ffffffffffffffffffffffffffffffffffffffff1673ffffffffffffffffffffffffffffffffffffffff16815260200190815260200160002060006101000a81548160ff02191690831515021790555080600160008473ffffffffffffffffffffffffffffffffffffffff1673ffffffffffffffffffffffffffffffffffffffff168152602001908152602001600020600082015181600001556020820151816001019080519060200190610af8929190610cf7565b50905050505050565b34600160003373ffffffffffffffffffffffffffffffffffffffff1673ffffffffffffffffffffffffffffffffffffffff1681526020019081526020016000206000016000828254019250508190555034600460008282540192505081905550565b600073ffffffffffffffffffffffffffffffffffffffff168173ffffffffffffffffffffffffffffffffffffffff1614151515610b9f57600080fd5b8073ffffffffffffffffffffffffffffffffffffffff166000809054906101000a900473ffffffffffffffffffffffffffffffffffffffff1673ffffffffffffffffffffffffffffffffffffffff167f8be0079c531659141344cd1fd0a4f28419497f9722a3daafe3b4186f6b6457e060405160405180910390a3806000806101000a81548173ffffffffffffffffffffffffffffffffffffffff021916908373ffffffffffffffffffffffffffffffffffffffff16021790555050565b828054600181600116156101000203166002900490600052602060002090601f016020900481019282601f10610c9e57805160ff1916838001178555610ccc565b82800160010185558215610ccc579182015b82811115610ccb578251825591602001919060010190610cb0565b5b509050610cd99190610d77565b5090565b604080519081016040528060008152602001606081525090565b828054600181600116156101000203166002900490600052602060002090601f016020900481019282601f10610d3857805160ff1916838001178555610d66565b82800160010185558215610d66579182015b82811115610d65578251825591602001919060010190610d4a565b5b509050610d739190610d77565b5090565b610d9991905b80821115610d95576000816000905550600101610d7d565b5090565b90565b6000610da88235611356565b905092915050565b6000610dbc8235611368565b905092915050565b6000610dd0823561137a565b905092915050565b600082601f8301121515610deb57600080fd5b8135610dfe610df9826112d7565b6112aa565b91508082526020830160208301858383011115610e1a57600080fd5b610e2583828461139d565b50505092915050565b6000610e3a8235611393565b905092915050565b600060208284031215610e5457600080fd5b6000610e6284828501610d9c565b91505092915050565b60008060408385031215610e7e57600080fd5b6000610e8c85828601610db0565b9250506020610e9d85828601610e2e565b9150509250929050565b600080600060608486031215610ebc57600080fd5b6000610eca86828701610dc4565b935050602084013567ffffffffffffffff811115610ee757600080fd5b610ef386828701610dd8565b925050604084013567ffffffffffffffff811115610f1057600080fd5b610f1c86828701610dd8565b9150509250925092565b600060208284031215610f3857600080fd5b600082013567ffffffffffffffff811115610f5257600080fd5b610f5e84828501610dd8565b91505092915050565b600080600060608486031215610f7c57600080fd5b600084013567ffffffffffffffff811115610f9657600080fd5b610fa286828701610dd8565b935050602084013567ffffffffffffffff811115610fbf57600080fd5b610fcb86828701610dd8565b9250506040610fdc86828701610d9c565b9150509250925092565b60008060008060808587031215610ffc57600080fd5b600085013567ffffffffffffffff81111561101657600080fd5b61102287828801610dd8565b945050602085013567ffffffffffffffff81111561103f57600080fd5b61104b87828801610dd8565b935050604061105c87828801610db0565b925050606061106d87828801610e2e565b91505092959194509250565b6110828161130e565b82525050565b61109181611320565b82525050565b60006110a282611303565b8084526110b68160208601602086016113ac565b6110bf816113df565b602085010191505092915050565b6000601382527f4e6f7420612075736572206164647265737321000000000000000000000000006020830152604082019050919050565b6000602182527f4d757374206265206d6f7265206265206120706f736974697665206e756d626560208301527f72000000000000000000000000000000000000000000000000000000000000006040830152606082019050919050565b6000600f82527f416c7265616479206120757365722100000000000000000000000000000000006020830152604082019050919050565b6111a18161134c565b82525050565b60006020820190506111bc6000830184611079565b92915050565b60006020820190506111d76000830184611088565b92915050565b600060208201905081810360008301526111f78184611097565b905092915050565b60006020820190508181036000830152611218816110cd565b9050919050565b6000602082019050818103600083015261123881611104565b9050919050565b6000602082019050818103600083015261125881611161565b9050919050565b60006020820190506112746000830184611198565b92915050565b600060408201905061128f6000830185611198565b81810360208301526112a18184611097565b90509392505050565b6000604051905081810181811067ffffffffffffffff821117156112cd57600080fd5b8060405250919050565b600067ffffffffffffffff8211156112ee57600080fd5b601f19601f8301169050602081019050919050565b600081519050919050565b60006113198261132c565b9050919050565b60008115159050919050565b600073ffffffffffffffffffffffffffffffffffffffff82169050919050565b6000819050919050565b60006113618261132c565b9050919050565b60006113738261132c565b9050919050565b600060028210151561138b57600080fd5b819050919050565b6000819050919050565b82818337600083830152505050565b60005b838110156113ca5780820151818401526020810190506113af565b838111156113d9576000848401525b50505050565b6000601f19601f830116905091905056fea265627a7a72305820bab585696cec76f2b14d175d33411bdfd1cb7d49f7e7a6a40554a73da3f104556c6578706572696d656e74616cf50037",
  "source": "pragma solidity >=0.4.21 <0.6.0;\r\npragma experimental ABIEncoderV2;\r\n\r\nimport \"./Ownable.sol\";\r\n\r\ncontract Test is Ownable {\r\n    enum UserMode { Add, Update }\r\n\r\n    mapping(address => User) users;\r\n    mapping(address => bool) userIn;\r\n    string allJobs;\r\n    uint contractValue;\r\n\r\n    struct User {\r\n        uint funds;\r\n        string userHash;\r\n    }\r\n\r\n    modifier fundsCheck(uint value) {\r\n        require(value > 0, 'Must be more be a positive number');\r\n        _;\r\n    }\r\n\r\n    modifier onlyUser(address sender) {\r\n        require(userIn[sender], 'Not registered address!');\r\n        _;\r\n    } \r\n\r\n    function _addUser(string memory userHash) private {\r\n        address sender = msg.sender;\r\n        User memory user = User(msg.value, userHash);\r\n        userIn[sender] = true;\r\n        users[sender] = user;\r\n    }\r\n\r\n    function updateJobsHash(string memory jobsHash) public \r\n        // onlyUser(msg.sender) \r\n    {\r\n        allJobs = jobsHash;\r\n\r\n    }\r\n\r\n    function userAndJobsHashes(UserMode mode, string memory userHash, string memory jobsHash)\r\n        public\r\n        payable \r\n        fundsCheck(msg.value)\r\n    {\r\n        address sender = msg.sender;\r\n        if (mode == UserMode.Add) { \r\n            require(!userIn[sender], 'Not a user address!');\r\n            _addUser(userHash);\r\n        } else {\r\n            require(userIn[sender], 'Already a user!');\r\n            updateUserHash(userHash);\r\n        }\r\n        updateJobsHash(jobsHash);\r\n        addReward();\r\n    }\r\n\r\n    function updateForSolutions(string memory userHash, string memory jobsHash, address userJobAddress) \r\n        public\r\n    {\r\n        updateUserHashForSolutions(userHash, userJobAddress);\r\n        updateJobsHash(jobsHash);\r\n    }\r\n\r\n    function updateHasheshAndPaySolution(string memory userHash, string memory jobsHash, address payable userSolution, uint reward) public payable {\r\n        updateUserHash(userHash);\r\n        updateJobsHash(jobsHash);\r\n        userSolution.transfer(msg.value);\r\n    }\r\n\r\n    uint tempval;\r\n    address tempadr;\r\n\r\n    function doPay(address payable addressUser, uint reward) public {\r\n        msg.sender.transfer(reward);\r\n    }\r\n\r\n\r\n    function updateUserHashForSolutions(string memory hashIpfs, address userJobAddress) \r\n        private\r\n    {\r\n        users[userJobAddress].userHash = hashIpfs;\r\n    }\r\n\r\n    function addReward() private {\r\n        users[msg.sender].funds += msg.value;\r\n        contractValue += msg.value;\r\n    }\r\n\r\n    function getJobsHash() public view returns(string memory){\r\n        return allJobs;\r\n    }\r\n\r\n    function updateUserHash(string memory hashIpfs) public {\r\n        users[msg.sender].userHash = hashIpfs;\r\n    }\r\n\r\n    function getUser(address user) public view returns(uint funds, string memory userHash) {\r\n        return (users[user].funds, users[user].userHash);\r\n    }\r\n\r\n    function getContractValue() public view returns(uint) {\r\n        return address(this).balance;\r\n    }\r\n    \r\n    function isUser(address user) public view returns(bool) {\r\n        return userIn[user];\r\n    }\r\n\r\n}",
  "sourcePath": "E:/Solidity_Softuni/final/contracts/Test.sol",
  "compiler": {
    "name": "solc",
    "version": "0.5.0+commit.1d4f565a.Emscripten.clang"
  },
  "schemaVersion": "3.0.5",
  "updatedAt": "2019-04-10T21:35:58.984Z",
  "devdoc": {
    "methods": {
      "isOwner()": {
        "return": "true if `msg.sender` is the owner of the contract.\r"
      },
      "owner()": {
        "return": "the address of the owner.\r"
      },
      "renounceOwnership()": {
        "details": "Allows the current owner to relinquish control of the contract.\r It will not be possible to call the functions with the `onlyOwner`\r modifier anymore.\r"
      },
      "transferOwnership(address)": {
        "details": "Allows the current owner to transfer control of the contract to a newOwner.\r",
        "params": {
          "newOwner": "The address to transfer ownership to.\r"
        }
      }
    }
  },
  "userdoc": {
    "methods": {
      "renounceOwnership()": {
        "notice": "Renouncing ownership will leave the contract without an owner,\r thereby removing any functionality that is only available to the owner.\r"
      }
    }
  }
}